{"contracts/Messages.sol":{"Messages":{"abi":[{"inputs":[],"name":"getMessagesForRecipient","outputs":[{"internalType":"string[]","name":"","type":"string[]"}],"stateMutability":"view","type":"function"},{"inputs":[{"internalType":"uint256","name":"","type":"uint256"}],"name":"messages","outputs":[{"internalType":"address","name":"sender","type":"address"},{"internalType":"address","name":"recipient","type":"address"},{"internalType":"string","name":"encryptedMessage","type":"string"}],"stateMutability":"view","type":"function"},{"inputs":[{"internalType":"address","name":"recipient","type":"address"},{"internalType":"string","name":"encryptedMessage","type":"string"}],"name":"sendMessage","outputs":[],"stateMutability":"nonpayable","type":"function"}],"evm":{"bytecode":{"linkReferences":{},"object":"608060405234801561001057600080fd5b50610d7c806100206000396000f3fe608060405234801561001057600080fd5b50600436106100415760003560e01c80630d80fefd14610046578063de6f24bb14610078578063f6d4c57214610094575b600080fd5b610060600480360381019061005b919061059b565b6100b2565b60405161006f93929190610699565b60405180910390f35b610092600480360381019061008d9190610838565b6101b4565b005b61009c6102d0565b6040516100a991906109a0565b60405180910390f35b600081815481106100c257600080fd5b90600052602060002090600302016000915090508060000160009054906101000a900473ffffffffffffffffffffffffffffffffffffffff16908060010160009054906101000a900473ffffffffffffffffffffffffffffffffffffffff1690806002018054610131906109f1565b80601f016020809104026020016040519081016040528092919081815260200182805461015d906109f1565b80156101aa5780601f1061017f576101008083540402835291602001916101aa565b820191906000526020600020905b81548152906001019060200180831161018d57829003601f168201915b5050505050905083565b600060405180606001604052803373ffffffffffffffffffffffffffffffffffffffff1681526020018473ffffffffffffffffffffffffffffffffffffffff16815260200183815250908060018154018082558091505060019003906000526020600020906003020160009091909190915060008201518160000160006101000a81548173ffffffffffffffffffffffffffffffffffffffff021916908373ffffffffffffffffffffffffffffffffffffffff16021790555060208201518160010160006101000a81548173ffffffffffffffffffffffffffffffffffffffff021916908373ffffffffffffffffffffffffffffffffffffffff16021790555060408201518160020190816102c99190610bce565b5050505050565b60606000805b60008054905081101561037d573373ffffffffffffffffffffffffffffffffffffffff166000828154811061030e5761030d610ca0565b5b906000526020600020906003020160010160009054906101000a900473ffffffffffffffffffffffffffffffffffffffff1673ffffffffffffffffffffffffffffffffffffffff160361036a57818061036690610cfe565b9250505b808061037590610cfe565b9150506102d6565b5060008167ffffffffffffffff81111561039a5761039961070d565b5b6040519080825280602002602001820160405280156103cd57816020015b60608152602001906001900390816103b85790505b5090506000805b600080549050811015610547573373ffffffffffffffffffffffffffffffffffffffff166000828154811061040c5761040b610ca0565b5b906000526020600020906003020160010160009054906101000a900473ffffffffffffffffffffffffffffffffffffffff1673ffffffffffffffffffffffffffffffffffffffff1603610534576000818154811061046d5761046c610ca0565b5b90600052602060002090600302016002018054610489906109f1565b80601f01602080910402602001604051908101604052809291908181526020018280546104b5906109f1565b80156105025780601f106104d757610100808354040283529160200191610502565b820191906000526020600020905b8154815290600101906020018083116104e557829003601f168201915b505050505083838151811061051a57610519610ca0565b5b6020026020010181905250818061053090610cfe565b9250505b808061053f90610cfe565b9150506103d4565b5081935050505090565b6000604051905090565b600080fd5b600080fd5b6000819050919050565b61057881610565565b811461058357600080fd5b50565b6000813590506105958161056f565b92915050565b6000602082840312156105b1576105b061055b565b5b60006105bf84828501610586565b91505092915050565b600073ffffffffffffffffffffffffffffffffffffffff82169050919050565b60006105f3826105c8565b9050919050565b610603816105e8565b82525050565b600081519050919050565b600082825260208201905092915050565b60005b83811015610643578082015181840152602081019050610628565b60008484015250505050565b6000601f19601f8301169050919050565b600061066b82610609565b6106758185610614565b9350610685818560208601610625565b61068e8161064f565b840191505092915050565b60006060820190506106ae60008301866105fa565b6106bb60208301856105fa565b81810360408301526106cd8184610660565b9050949350505050565b6106e0816105e8565b81146106eb57600080fd5b50565b6000813590506106fd816106d7565b92915050565b600080fd5b600080fd5b7f4e487b7100000000000000000000000000000000000000000000000000000000600052604160045260246000fd5b6107458261064f565b810181811067ffffffffffffffff821117156107645761076361070d565b5b80604052505050565b6000610777610551565b9050610783828261073c565b919050565b600067ffffffffffffffff8211156107a3576107a261070d565b5b6107ac8261064f565b9050602081019050919050565b82818337600083830152505050565b60006107db6107d684610788565b61076d565b9050828152602081018484840111156107f7576107f6610708565b5b6108028482856107b9565b509392505050565b600082601f83011261081f5761081e610703565b5b813561082f8482602086016107c8565b91505092915050565b6000806040838503121561084f5761084e61055b565b5b600061085d858286016106ee565b925050602083013567ffffffffffffffff81111561087e5761087d610560565b5b61088a8582860161080a565b9150509250929050565b600081519050919050565b600082825260208201905092915050565b6000819050602082019050919050565b600082825260208201905092915050565b60006108dc82610609565b6108e681856108c0565b93506108f6818560208601610625565b6108ff8161064f565b840191505092915050565b600061091683836108d1565b905092915050565b6000602082019050919050565b600061093682610894565b610940818561089f565b935083602082028501610952856108b0565b8060005b8581101561098e578484038952815161096f858261090a565b945061097a8361091e565b925060208a01995050600181019050610956565b50829750879550505050505092915050565b600060208201905081810360008301526109ba818461092b565b905092915050565b7f4e487b7100000000000000000000000000000000000000000000000000000000600052602260045260246000fd5b60006002820490506001821680610a0957607f821691505b602082108103610a1c57610a1b6109c2565b5b50919050565b60008190508160005260206000209050919050565b60006020601f8301049050919050565b600082821b905092915050565b600060088302610a847fffffffffffffffffffffffffffffffffffffffffffffffffffffffffffffffff82610a47565b610a8e8683610a47565b95508019841693508086168417925050509392505050565b6000819050919050565b6000610acb610ac6610ac184610565565b610aa6565b610565565b9050919050565b6000819050919050565b610ae583610ab0565b610af9610af182610ad2565b848454610a54565b825550505050565b600090565b610b0e610b01565b610b19818484610adc565b505050565b5b81811015610b3d57610b32600082610b06565b600181019050610b1f565b5050565b601f821115610b8257610b5381610a22565b610b5c84610a37565b81016020851015610b6b578190505b610b7f610b7785610a37565b830182610b1e565b50505b505050565b600082821c905092915050565b6000610ba560001984600802610b87565b1980831691505092915050565b6000610bbe8383610b94565b9150826002028217905092915050565b610bd782610609565b67ffffffffffffffff811115610bf057610bef61070d565b5b610bfa82546109f1565b610c05828285610b41565b600060209050601f831160018114610c385760008415610c26578287015190505b610c308582610bb2565b865550610c98565b601f198416610c4686610a22565b60005b82811015610c6e57848901518255600182019150602085019450602081019050610c49565b86831015610c8b5784890151610c87601f891682610b94565b8355505b6001600288020188555050505b505050505050565b7f4e487b7100000000000000000000000000000000000000000000000000000000600052603260045260246000fd5b7f4e487b7100000000000000000000000000000000000000000000000000000000600052601160045260246000fd5b6000610d0982610565565b91507fffffffffffffffffffffffffffffffffffffffffffffffffffffffffffffffff8203610d3b57610d3a610ccf565b5b60018201905091905056fea2646970667358221220e4cf19c08d8682c53727399027ee866cff5f3a171c4fd124a70b57d57205569864736f6c63430008140033","opcodes":"PUSH1 0x80 PUSH1 0x40 MSTORE CALLVALUE DUP1 ISZERO PUSH2 0x10 JUMPI PUSH1 0x0 DUP1 REVERT JUMPDEST POP PUSH2 0xD7C DUP1 PUSH2 0x20 PUSH1 0x0 CODECOPY PUSH1 0x0 RETURN INVALID PUSH1 0x80 PUSH1 0x40 MSTORE CALLVALUE DUP1 ISZERO PUSH2 0x10 JUMPI PUSH1 0x0 DUP1 REVERT JUMPDEST POP PUSH1 0x4 CALLDATASIZE LT PUSH2 0x41 JUMPI PUSH1 0x0 CALLDATALOAD PUSH1 0xE0 SHR DUP1 PUSH4 0xD80FEFD EQ PUSH2 0x46 JUMPI DUP1 PUSH4 0xDE6F24BB EQ PUSH2 0x78 JUMPI DUP1 PUSH4 0xF6D4C572 EQ PUSH2 0x94 JUMPI JUMPDEST PUSH1 0x0 DUP1 REVERT JUMPDEST PUSH2 0x60 PUSH1 0x4 DUP1 CALLDATASIZE SUB DUP2 ADD SWAP1 PUSH2 0x5B SWAP2 SWAP1 PUSH2 0x59B JUMP JUMPDEST PUSH2 0xB2 JUMP JUMPDEST PUSH1 0x40 MLOAD PUSH2 0x6F SWAP4 SWAP3 SWAP2 SWAP1 PUSH2 0x699 JUMP JUMPDEST PUSH1 0x40 MLOAD DUP1 SWAP2 SUB SWAP1 RETURN JUMPDEST PUSH2 0x92 PUSH1 0x4 DUP1 CALLDATASIZE SUB DUP2 ADD SWAP1 PUSH2 0x8D SWAP2 SWAP1 PUSH2 0x838 JUMP JUMPDEST PUSH2 0x1B4 JUMP JUMPDEST STOP JUMPDEST PUSH2 0x9C PUSH2 0x2D0 JUMP JUMPDEST PUSH1 0x40 MLOAD PUSH2 0xA9 SWAP2 SWAP1 PUSH2 0x9A0 JUMP JUMPDEST PUSH1 0x40 MLOAD DUP1 SWAP2 SUB SWAP1 RETURN JUMPDEST PUSH1 0x0 DUP2 DUP2 SLOAD DUP2 LT PUSH2 0xC2 JUMPI PUSH1 0x0 DUP1 REVERT JUMPDEST SWAP1 PUSH1 0x0 MSTORE PUSH1 0x20 PUSH1 0x0 KECCAK256 SWAP1 PUSH1 0x3 MUL ADD PUSH1 0x0 SWAP2 POP SWAP1 POP DUP1 PUSH1 0x0 ADD PUSH1 0x0 SWAP1 SLOAD SWAP1 PUSH2 0x100 EXP SWAP1 DIV PUSH20 0xFFFFFFFFFFFFFFFFFFFFFFFFFFFFFFFFFFFFFFFF AND SWAP1 DUP1 PUSH1 0x1 ADD PUSH1 0x0 SWAP1 SLOAD SWAP1 PUSH2 0x100 EXP SWAP1 DIV PUSH20 0xFFFFFFFFFFFFFFFFFFFFFFFFFFFFFFFFFFFFFFFF AND SWAP1 DUP1 PUSH1 0x2 ADD DUP1 SLOAD PUSH2 0x131 SWAP1 PUSH2 0x9F1 JUMP JUMPDEST DUP1 PUSH1 0x1F ADD PUSH1 0x20 DUP1 SWAP2 DIV MUL PUSH1 0x20 ADD PUSH1 0x40 MLOAD SWAP1 DUP2 ADD PUSH1 0x40 MSTORE DUP1 SWAP3 SWAP2 SWAP1 DUP2 DUP2 MSTORE PUSH1 0x20 ADD DUP3 DUP1 SLOAD PUSH2 0x15D SWAP1 PUSH2 0x9F1 JUMP JUMPDEST DUP1 ISZERO PUSH2 0x1AA JUMPI DUP1 PUSH1 0x1F LT PUSH2 0x17F JUMPI PUSH2 0x100 DUP1 DUP4 SLOAD DIV MUL DUP4 MSTORE SWAP2 PUSH1 0x20 ADD SWAP2 PUSH2 0x1AA JUMP JUMPDEST DUP3 ADD SWAP2 SWAP1 PUSH1 0x0 MSTORE PUSH1 0x20 PUSH1 0x0 KECCAK256 SWAP1 JUMPDEST DUP2 SLOAD DUP2 MSTORE SWAP1 PUSH1 0x1 ADD SWAP1 PUSH1 0x20 ADD DUP1 DUP4 GT PUSH2 0x18D JUMPI DUP3 SWAP1 SUB PUSH1 0x1F AND DUP3 ADD SWAP2 JUMPDEST POP POP POP POP POP SWAP1 POP DUP4 JUMP JUMPDEST PUSH1 0x0 PUSH1 0x40 MLOAD DUP1 PUSH1 0x60 ADD PUSH1 0x40 MSTORE DUP1 CALLER PUSH20 0xFFFFFFFFFFFFFFFFFFFFFFFFFFFFFFFFFFFFFFFF AND DUP2 MSTORE PUSH1 0x20 ADD DUP5 PUSH20 0xFFFFFFFFFFFFFFFFFFFFFFFFFFFFFFFFFFFFFFFF AND DUP2 MSTORE PUSH1 0x20 ADD DUP4 DUP2 MSTORE POP SWAP1 DUP1 PUSH1 0x1 DUP2 SLOAD ADD DUP1 DUP3 SSTORE DUP1 SWAP2 POP POP PUSH1 0x1 SWAP1 SUB SWAP1 PUSH1 0x0 MSTORE PUSH1 0x20 PUSH1 0x0 KECCAK256 SWAP1 PUSH1 0x3 MUL ADD PUSH1 0x0 SWAP1 SWAP2 SWAP1 SWAP2 SWAP1 SWAP2 POP PUSH1 0x0 DUP3 ADD MLOAD DUP2 PUSH1 0x0 ADD PUSH1 0x0 PUSH2 0x100 EXP DUP2 SLOAD DUP2 PUSH20 0xFFFFFFFFFFFFFFFFFFFFFFFFFFFFFFFFFFFFFFFF MUL NOT AND SWAP1 DUP4 PUSH20 0xFFFFFFFFFFFFFFFFFFFFFFFFFFFFFFFFFFFFFFFF AND MUL OR SWAP1 SSTORE POP PUSH1 0x20 DUP3 ADD MLOAD DUP2 PUSH1 0x1 ADD PUSH1 0x0 PUSH2 0x100 EXP DUP2 SLOAD DUP2 PUSH20 0xFFFFFFFFFFFFFFFFFFFFFFFFFFFFFFFFFFFFFFFF MUL NOT AND SWAP1 DUP4 PUSH20 0xFFFFFFFFFFFFFFFFFFFFFFFFFFFFFFFFFFFFFFFF AND MUL OR SWAP1 SSTORE POP PUSH1 0x40 DUP3 ADD MLOAD DUP2 PUSH1 0x2 ADD SWAP1 DUP2 PUSH2 0x2C9 SWAP2 SWAP1 PUSH2 0xBCE JUMP JUMPDEST POP POP POP POP POP JUMP JUMPDEST PUSH1 0x60 PUSH1 0x0 DUP1 JUMPDEST PUSH1 0x0 DUP1 SLOAD SWAP1 POP DUP2 LT ISZERO PUSH2 0x37D JUMPI CALLER PUSH20 0xFFFFFFFFFFFFFFFFFFFFFFFFFFFFFFFFFFFFFFFF AND PUSH1 0x0 DUP3 DUP2 SLOAD DUP2 LT PUSH2 0x30E JUMPI PUSH2 0x30D PUSH2 0xCA0 JUMP JUMPDEST JUMPDEST SWAP1 PUSH1 0x0 MSTORE PUSH1 0x20 PUSH1 0x0 KECCAK256 SWAP1 PUSH1 0x3 MUL ADD PUSH1 0x1 ADD PUSH1 0x0 SWAP1 SLOAD SWAP1 PUSH2 0x100 EXP SWAP1 DIV PUSH20 0xFFFFFFFFFFFFFFFFFFFFFFFFFFFFFFFFFFFFFFFF AND PUSH20 0xFFFFFFFFFFFFFFFFFFFFFFFFFFFFFFFFFFFFFFFF AND SUB PUSH2 0x36A JUMPI DUP2 DUP1 PUSH2 0x366 SWAP1 PUSH2 0xCFE JUMP JUMPDEST SWAP3 POP POP JUMPDEST DUP1 DUP1 PUSH2 0x375 SWAP1 PUSH2 0xCFE JUMP JUMPDEST SWAP2 POP POP PUSH2 0x2D6 JUMP JUMPDEST POP PUSH1 0x0 DUP2 PUSH8 0xFFFFFFFFFFFFFFFF DUP2 GT ISZERO PUSH2 0x39A JUMPI PUSH2 0x399 PUSH2 0x70D JUMP JUMPDEST JUMPDEST PUSH1 0x40 MLOAD SWAP1 DUP1 DUP3 MSTORE DUP1 PUSH1 0x20 MUL PUSH1 0x20 ADD DUP3 ADD PUSH1 0x40 MSTORE DUP1 ISZERO PUSH2 0x3CD JUMPI DUP2 PUSH1 0x20 ADD JUMPDEST PUSH1 0x60 DUP2 MSTORE PUSH1 0x20 ADD SWAP1 PUSH1 0x1 SWAP1 SUB SWAP1 DUP2 PUSH2 0x3B8 JUMPI SWAP1 POP JUMPDEST POP SWAP1 POP PUSH1 0x0 DUP1 JUMPDEST PUSH1 0x0 DUP1 SLOAD SWAP1 POP DUP2 LT ISZERO PUSH2 0x547 JUMPI CALLER PUSH20 0xFFFFFFFFFFFFFFFFFFFFFFFFFFFFFFFFFFFFFFFF AND PUSH1 0x0 DUP3 DUP2 SLOAD DUP2 LT PUSH2 0x40C JUMPI PUSH2 0x40B PUSH2 0xCA0 JUMP JUMPDEST JUMPDEST SWAP1 PUSH1 0x0 MSTORE PUSH1 0x20 PUSH1 0x0 KECCAK256 SWAP1 PUSH1 0x3 MUL ADD PUSH1 0x1 ADD PUSH1 0x0 SWAP1 SLOAD SWAP1 PUSH2 0x100 EXP SWAP1 DIV PUSH20 0xFFFFFFFFFFFFFFFFFFFFFFFFFFFFFFFFFFFFFFFF AND PUSH20 0xFFFFFFFFFFFFFFFFFFFFFFFFFFFFFFFFFFFFFFFF AND SUB PUSH2 0x534 JUMPI PUSH1 0x0 DUP2 DUP2 SLOAD DUP2 LT PUSH2 0x46D JUMPI PUSH2 0x46C PUSH2 0xCA0 JUMP JUMPDEST JUMPDEST SWAP1 PUSH1 0x0 MSTORE PUSH1 0x20 PUSH1 0x0 KECCAK256 SWAP1 PUSH1 0x3 MUL ADD PUSH1 0x2 ADD DUP1 SLOAD PUSH2 0x489 SWAP1 PUSH2 0x9F1 JUMP JUMPDEST DUP1 PUSH1 0x1F ADD PUSH1 0x20 DUP1 SWAP2 DIV MUL PUSH1 0x20 ADD PUSH1 0x40 MLOAD SWAP1 DUP2 ADD PUSH1 0x40 MSTORE DUP1 SWAP3 SWAP2 SWAP1 DUP2 DUP2 MSTORE PUSH1 0x20 ADD DUP3 DUP1 SLOAD PUSH2 0x4B5 SWAP1 PUSH2 0x9F1 JUMP JUMPDEST DUP1 ISZERO PUSH2 0x502 JUMPI DUP1 PUSH1 0x1F LT PUSH2 0x4D7 JUMPI PUSH2 0x100 DUP1 DUP4 SLOAD DIV MUL DUP4 MSTORE SWAP2 PUSH1 0x20 ADD SWAP2 PUSH2 0x502 JUMP JUMPDEST DUP3 ADD SWAP2 SWAP1 PUSH1 0x0 MSTORE PUSH1 0x20 PUSH1 0x0 KECCAK256 SWAP1 JUMPDEST DUP2 SLOAD DUP2 MSTORE SWAP1 PUSH1 0x1 ADD SWAP1 PUSH1 0x20 ADD DUP1 DUP4 GT PUSH2 0x4E5 JUMPI DUP3 SWAP1 SUB PUSH1 0x1F AND DUP3 ADD SWAP2 JUMPDEST POP POP POP POP POP DUP4 DUP4 DUP2 MLOAD DUP2 LT PUSH2 0x51A JUMPI PUSH2 0x519 PUSH2 0xCA0 JUMP JUMPDEST JUMPDEST PUSH1 0x20 MUL PUSH1 0x20 ADD ADD DUP2 SWAP1 MSTORE POP DUP2 DUP1 PUSH2 0x530 SWAP1 PUSH2 0xCFE JUMP JUMPDEST SWAP3 POP POP JUMPDEST DUP1 DUP1 PUSH2 0x53F SWAP1 PUSH2 0xCFE JUMP JUMPDEST SWAP2 POP POP PUSH2 0x3D4 JUMP JUMPDEST POP DUP2 SWAP4 POP POP POP POP SWAP1 JUMP JUMPDEST PUSH1 0x0 PUSH1 0x40 MLOAD SWAP1 POP SWAP1 JUMP JUMPDEST PUSH1 0x0 DUP1 REVERT JUMPDEST PUSH1 0x0 DUP1 REVERT JUMPDEST PUSH1 0x0 DUP2 SWAP1 POP SWAP2 SWAP1 POP JUMP JUMPDEST PUSH2 0x578 DUP2 PUSH2 0x565 JUMP JUMPDEST DUP2 EQ PUSH2 0x583 JUMPI PUSH1 0x0 DUP1 REVERT JUMPDEST POP JUMP JUMPDEST PUSH1 0x0 DUP2 CALLDATALOAD SWAP1 POP PUSH2 0x595 DUP2 PUSH2 0x56F JUMP JUMPDEST SWAP3 SWAP2 POP POP JUMP JUMPDEST PUSH1 0x0 PUSH1 0x20 DUP3 DUP5 SUB SLT ISZERO PUSH2 0x5B1 JUMPI PUSH2 0x5B0 PUSH2 0x55B JUMP JUMPDEST JUMPDEST PUSH1 0x0 PUSH2 0x5BF DUP5 DUP3 DUP6 ADD PUSH2 0x586 JUMP JUMPDEST SWAP2 POP POP SWAP3 SWAP2 POP POP JUMP JUMPDEST PUSH1 0x0 PUSH20 0xFFFFFFFFFFFFFFFFFFFFFFFFFFFFFFFFFFFFFFFF DUP3 AND SWAP1 POP SWAP2 SWAP1 POP JUMP JUMPDEST PUSH1 0x0 PUSH2 0x5F3 DUP3 PUSH2 0x5C8 JUMP JUMPDEST SWAP1 POP SWAP2 SWAP1 POP JUMP JUMPDEST PUSH2 0x603 DUP2 PUSH2 0x5E8 JUMP JUMPDEST DUP3 MSTORE POP POP JUMP JUMPDEST PUSH1 0x0 DUP2 MLOAD SWAP1 POP SWAP2 SWAP1 POP JUMP JUMPDEST PUSH1 0x0 DUP3 DUP3 MSTORE PUSH1 0x20 DUP3 ADD SWAP1 POP SWAP3 SWAP2 POP POP JUMP JUMPDEST PUSH1 0x0 JUMPDEST DUP4 DUP2 LT ISZERO PUSH2 0x643 JUMPI DUP1 DUP3 ADD MLOAD DUP2 DUP5 ADD MSTORE PUSH1 0x20 DUP2 ADD SWAP1 POP PUSH2 0x628 JUMP JUMPDEST PUSH1 0x0 DUP5 DUP5 ADD MSTORE POP POP POP POP JUMP JUMPDEST PUSH1 0x0 PUSH1 0x1F NOT PUSH1 0x1F DUP4 ADD AND SWAP1 POP SWAP2 SWAP1 POP JUMP JUMPDEST PUSH1 0x0 PUSH2 0x66B DUP3 PUSH2 0x609 JUMP JUMPDEST PUSH2 0x675 DUP2 DUP6 PUSH2 0x614 JUMP JUMPDEST SWAP4 POP PUSH2 0x685 DUP2 DUP6 PUSH1 0x20 DUP7 ADD PUSH2 0x625 JUMP JUMPDEST PUSH2 0x68E DUP2 PUSH2 0x64F JUMP JUMPDEST DUP5 ADD SWAP2 POP POP SWAP3 SWAP2 POP POP JUMP JUMPDEST PUSH1 0x0 PUSH1 0x60 DUP3 ADD SWAP1 POP PUSH2 0x6AE PUSH1 0x0 DUP4 ADD DUP7 PUSH2 0x5FA JUMP JUMPDEST PUSH2 0x6BB PUSH1 0x20 DUP4 ADD DUP6 PUSH2 0x5FA JUMP JUMPDEST DUP2 DUP2 SUB PUSH1 0x40 DUP4 ADD MSTORE PUSH2 0x6CD DUP2 DUP5 PUSH2 0x660 JUMP JUMPDEST SWAP1 POP SWAP5 SWAP4 POP POP POP POP JUMP JUMPDEST PUSH2 0x6E0 DUP2 PUSH2 0x5E8 JUMP JUMPDEST DUP2 EQ PUSH2 0x6EB JUMPI PUSH1 0x0 DUP1 REVERT JUMPDEST POP JUMP JUMPDEST PUSH1 0x0 DUP2 CALLDATALOAD SWAP1 POP PUSH2 0x6FD DUP2 PUSH2 0x6D7 JUMP JUMPDEST SWAP3 SWAP2 POP POP JUMP JUMPDEST PUSH1 0x0 DUP1 REVERT JUMPDEST PUSH1 0x0 DUP1 REVERT JUMPDEST PUSH32 0x4E487B7100000000000000000000000000000000000000000000000000000000 PUSH1 0x0 MSTORE PUSH1 0x41 PUSH1 0x4 MSTORE PUSH1 0x24 PUSH1 0x0 REVERT JUMPDEST PUSH2 0x745 DUP3 PUSH2 0x64F JUMP JUMPDEST DUP2 ADD DUP2 DUP2 LT PUSH8 0xFFFFFFFFFFFFFFFF DUP3 GT OR ISZERO PUSH2 0x764 JUMPI PUSH2 0x763 PUSH2 0x70D JUMP JUMPDEST JUMPDEST DUP1 PUSH1 0x40 MSTORE POP POP POP JUMP JUMPDEST PUSH1 0x0 PUSH2 0x777 PUSH2 0x551 JUMP JUMPDEST SWAP1 POP PUSH2 0x783 DUP3 DUP3 PUSH2 0x73C JUMP JUMPDEST SWAP2 SWAP1 POP JUMP JUMPDEST PUSH1 0x0 PUSH8 0xFFFFFFFFFFFFFFFF DUP3 GT ISZERO PUSH2 0x7A3 JUMPI PUSH2 0x7A2 PUSH2 0x70D JUMP JUMPDEST JUMPDEST PUSH2 0x7AC DUP3 PUSH2 0x64F JUMP JUMPDEST SWAP1 POP PUSH1 0x20 DUP2 ADD SWAP1 POP SWAP2 SWAP1 POP JUMP JUMPDEST DUP3 DUP2 DUP4 CALLDATACOPY PUSH1 0x0 DUP4 DUP4 ADD MSTORE POP POP POP JUMP JUMPDEST PUSH1 0x0 PUSH2 0x7DB PUSH2 0x7D6 DUP5 PUSH2 0x788 JUMP JUMPDEST PUSH2 0x76D JUMP JUMPDEST SWAP1 POP DUP3 DUP2 MSTORE PUSH1 0x20 DUP2 ADD DUP5 DUP5 DUP5 ADD GT ISZERO PUSH2 0x7F7 JUMPI PUSH2 0x7F6 PUSH2 0x708 JUMP JUMPDEST JUMPDEST PUSH2 0x802 DUP5 DUP3 DUP6 PUSH2 0x7B9 JUMP JUMPDEST POP SWAP4 SWAP3 POP POP POP JUMP JUMPDEST PUSH1 0x0 DUP3 PUSH1 0x1F DUP4 ADD SLT PUSH2 0x81F JUMPI PUSH2 0x81E PUSH2 0x703 JUMP JUMPDEST JUMPDEST DUP2 CALLDATALOAD PUSH2 0x82F DUP5 DUP3 PUSH1 0x20 DUP7 ADD PUSH2 0x7C8 JUMP JUMPDEST SWAP2 POP POP SWAP3 SWAP2 POP POP JUMP JUMPDEST PUSH1 0x0 DUP1 PUSH1 0x40 DUP4 DUP6 SUB SLT ISZERO PUSH2 0x84F JUMPI PUSH2 0x84E PUSH2 0x55B JUMP JUMPDEST JUMPDEST PUSH1 0x0 PUSH2 0x85D DUP6 DUP3 DUP7 ADD PUSH2 0x6EE JUMP JUMPDEST SWAP3 POP POP PUSH1 0x20 DUP4 ADD CALLDATALOAD PUSH8 0xFFFFFFFFFFFFFFFF DUP2 GT ISZERO PUSH2 0x87E JUMPI PUSH2 0x87D PUSH2 0x560 JUMP JUMPDEST JUMPDEST PUSH2 0x88A DUP6 DUP3 DUP7 ADD PUSH2 0x80A JUMP JUMPDEST SWAP2 POP POP SWAP3 POP SWAP3 SWAP1 POP JUMP JUMPDEST PUSH1 0x0 DUP2 MLOAD SWAP1 POP SWAP2 SWAP1 POP JUMP JUMPDEST PUSH1 0x0 DUP3 DUP3 MSTORE PUSH1 0x20 DUP3 ADD SWAP1 POP SWAP3 SWAP2 POP POP JUMP JUMPDEST PUSH1 0x0 DUP2 SWAP1 POP PUSH1 0x20 DUP3 ADD SWAP1 POP SWAP2 SWAP1 POP JUMP JUMPDEST PUSH1 0x0 DUP3 DUP3 MSTORE PUSH1 0x20 DUP3 ADD SWAP1 POP SWAP3 SWAP2 POP POP JUMP JUMPDEST PUSH1 0x0 PUSH2 0x8DC DUP3 PUSH2 0x609 JUMP JUMPDEST PUSH2 0x8E6 DUP2 DUP6 PUSH2 0x8C0 JUMP JUMPDEST SWAP4 POP PUSH2 0x8F6 DUP2 DUP6 PUSH1 0x20 DUP7 ADD PUSH2 0x625 JUMP JUMPDEST PUSH2 0x8FF DUP2 PUSH2 0x64F JUMP JUMPDEST DUP5 ADD SWAP2 POP POP SWAP3 SWAP2 POP POP JUMP JUMPDEST PUSH1 0x0 PUSH2 0x916 DUP4 DUP4 PUSH2 0x8D1 JUMP JUMPDEST SWAP1 POP SWAP3 SWAP2 POP POP JUMP JUMPDEST PUSH1 0x0 PUSH1 0x20 DUP3 ADD SWAP1 POP SWAP2 SWAP1 POP JUMP JUMPDEST PUSH1 0x0 PUSH2 0x936 DUP3 PUSH2 0x894 JUMP JUMPDEST PUSH2 0x940 DUP2 DUP6 PUSH2 0x89F JUMP JUMPDEST SWAP4 POP DUP4 PUSH1 0x20 DUP3 MUL DUP6 ADD PUSH2 0x952 DUP6 PUSH2 0x8B0 JUMP JUMPDEST DUP1 PUSH1 0x0 JUMPDEST DUP6 DUP2 LT ISZERO PUSH2 0x98E JUMPI DUP5 DUP5 SUB DUP10 MSTORE DUP2 MLOAD PUSH2 0x96F DUP6 DUP3 PUSH2 0x90A JUMP JUMPDEST SWAP5 POP PUSH2 0x97A DUP4 PUSH2 0x91E JUMP JUMPDEST SWAP3 POP PUSH1 0x20 DUP11 ADD SWAP10 POP POP PUSH1 0x1 DUP2 ADD SWAP1 POP PUSH2 0x956 JUMP JUMPDEST POP DUP3 SWAP8 POP DUP8 SWAP6 POP POP POP POP POP POP SWAP3 SWAP2 POP POP JUMP JUMPDEST PUSH1 0x0 PUSH1 0x20 DUP3 ADD SWAP1 POP DUP2 DUP2 SUB PUSH1 0x0 DUP4 ADD MSTORE PUSH2 0x9BA DUP2 DUP5 PUSH2 0x92B JUMP JUMPDEST SWAP1 POP SWAP3 SWAP2 POP POP JUMP JUMPDEST PUSH32 0x4E487B7100000000000000000000000000000000000000000000000000000000 PUSH1 0x0 MSTORE PUSH1 0x22 PUSH1 0x4 MSTORE PUSH1 0x24 PUSH1 0x0 REVERT JUMPDEST PUSH1 0x0 PUSH1 0x2 DUP3 DIV SWAP1 POP PUSH1 0x1 DUP3 AND DUP1 PUSH2 0xA09 JUMPI PUSH1 0x7F DUP3 AND SWAP2 POP JUMPDEST PUSH1 0x20 DUP3 LT DUP2 SUB PUSH2 0xA1C JUMPI PUSH2 0xA1B PUSH2 0x9C2 JUMP JUMPDEST JUMPDEST POP SWAP2 SWAP1 POP JUMP JUMPDEST PUSH1 0x0 DUP2 SWAP1 POP DUP2 PUSH1 0x0 MSTORE PUSH1 0x20 PUSH1 0x0 KECCAK256 SWAP1 POP SWAP2 SWAP1 POP JUMP JUMPDEST PUSH1 0x0 PUSH1 0x20 PUSH1 0x1F DUP4 ADD DIV SWAP1 POP SWAP2 SWAP1 POP JUMP JUMPDEST PUSH1 0x0 DUP3 DUP3 SHL SWAP1 POP SWAP3 SWAP2 POP POP JUMP JUMPDEST PUSH1 0x0 PUSH1 0x8 DUP4 MUL PUSH2 0xA84 PUSH32 0xFFFFFFFFFFFFFFFFFFFFFFFFFFFFFFFFFFFFFFFFFFFFFFFFFFFFFFFFFFFFFFFF DUP3 PUSH2 0xA47 JUMP JUMPDEST PUSH2 0xA8E DUP7 DUP4 PUSH2 0xA47 JUMP JUMPDEST SWAP6 POP DUP1 NOT DUP5 AND SWAP4 POP DUP1 DUP7 AND DUP5 OR SWAP3 POP POP POP SWAP4 SWAP3 POP POP POP JUMP JUMPDEST PUSH1 0x0 DUP2 SWAP1 POP SWAP2 SWAP1 POP JUMP JUMPDEST PUSH1 0x0 PUSH2 0xACB PUSH2 0xAC6 PUSH2 0xAC1 DUP5 PUSH2 0x565 JUMP JUMPDEST PUSH2 0xAA6 JUMP JUMPDEST PUSH2 0x565 JUMP JUMPDEST SWAP1 POP SWAP2 SWAP1 POP JUMP JUMPDEST PUSH1 0x0 DUP2 SWAP1 POP SWAP2 SWAP1 POP JUMP JUMPDEST PUSH2 0xAE5 DUP4 PUSH2 0xAB0 JUMP JUMPDEST PUSH2 0xAF9 PUSH2 0xAF1 DUP3 PUSH2 0xAD2 JUMP JUMPDEST DUP5 DUP5 SLOAD PUSH2 0xA54 JUMP JUMPDEST DUP3 SSTORE POP POP POP POP JUMP JUMPDEST PUSH1 0x0 SWAP1 JUMP JUMPDEST PUSH2 0xB0E PUSH2 0xB01 JUMP JUMPDEST PUSH2 0xB19 DUP2 DUP5 DUP5 PUSH2 0xADC JUMP JUMPDEST POP POP POP JUMP JUMPDEST JUMPDEST DUP2 DUP2 LT ISZERO PUSH2 0xB3D JUMPI PUSH2 0xB32 PUSH1 0x0 DUP3 PUSH2 0xB06 JUMP JUMPDEST PUSH1 0x1 DUP2 ADD SWAP1 POP PUSH2 0xB1F JUMP JUMPDEST POP POP JUMP JUMPDEST PUSH1 0x1F DUP3 GT ISZERO PUSH2 0xB82 JUMPI PUSH2 0xB53 DUP2 PUSH2 0xA22 JUMP JUMPDEST PUSH2 0xB5C DUP5 PUSH2 0xA37 JUMP JUMPDEST DUP2 ADD PUSH1 0x20 DUP6 LT ISZERO PUSH2 0xB6B JUMPI DUP2 SWAP1 POP JUMPDEST PUSH2 0xB7F PUSH2 0xB77 DUP6 PUSH2 0xA37 JUMP JUMPDEST DUP4 ADD DUP3 PUSH2 0xB1E JUMP JUMPDEST POP POP JUMPDEST POP POP POP JUMP JUMPDEST PUSH1 0x0 DUP3 DUP3 SHR SWAP1 POP SWAP3 SWAP2 POP POP JUMP JUMPDEST PUSH1 0x0 PUSH2 0xBA5 PUSH1 0x0 NOT DUP5 PUSH1 0x8 MUL PUSH2 0xB87 JUMP JUMPDEST NOT DUP1 DUP4 AND SWAP2 POP POP SWAP3 SWAP2 POP POP JUMP JUMPDEST PUSH1 0x0 PUSH2 0xBBE DUP4 DUP4 PUSH2 0xB94 JUMP JUMPDEST SWAP2 POP DUP3 PUSH1 0x2 MUL DUP3 OR SWAP1 POP SWAP3 SWAP2 POP POP JUMP JUMPDEST PUSH2 0xBD7 DUP3 PUSH2 0x609 JUMP JUMPDEST PUSH8 0xFFFFFFFFFFFFFFFF DUP2 GT ISZERO PUSH2 0xBF0 JUMPI PUSH2 0xBEF PUSH2 0x70D JUMP JUMPDEST JUMPDEST PUSH2 0xBFA DUP3 SLOAD PUSH2 0x9F1 JUMP JUMPDEST PUSH2 0xC05 DUP3 DUP3 DUP6 PUSH2 0xB41 JUMP JUMPDEST PUSH1 0x0 PUSH1 0x20 SWAP1 POP PUSH1 0x1F DUP4 GT PUSH1 0x1 DUP2 EQ PUSH2 0xC38 JUMPI PUSH1 0x0 DUP5 ISZERO PUSH2 0xC26 JUMPI DUP3 DUP8 ADD MLOAD SWAP1 POP JUMPDEST PUSH2 0xC30 DUP6 DUP3 PUSH2 0xBB2 JUMP JUMPDEST DUP7 SSTORE POP PUSH2 0xC98 JUMP JUMPDEST PUSH1 0x1F NOT DUP5 AND PUSH2 0xC46 DUP7 PUSH2 0xA22 JUMP JUMPDEST PUSH1 0x0 JUMPDEST DUP3 DUP2 LT ISZERO PUSH2 0xC6E JUMPI DUP5 DUP10 ADD MLOAD DUP3 SSTORE PUSH1 0x1 DUP3 ADD SWAP2 POP PUSH1 0x20 DUP6 ADD SWAP5 POP PUSH1 0x20 DUP2 ADD SWAP1 POP PUSH2 0xC49 JUMP JUMPDEST DUP7 DUP4 LT ISZERO PUSH2 0xC8B JUMPI DUP5 DUP10 ADD MLOAD PUSH2 0xC87 PUSH1 0x1F DUP10 AND DUP3 PUSH2 0xB94 JUMP JUMPDEST DUP4 SSTORE POP JUMPDEST PUSH1 0x1 PUSH1 0x2 DUP9 MUL ADD DUP9 SSTORE POP POP POP JUMPDEST POP POP POP POP POP POP JUMP JUMPDEST PUSH32 0x4E487B7100000000000000000000000000000000000000000000000000000000 PUSH1 0x0 MSTORE PUSH1 0x32 PUSH1 0x4 MSTORE PUSH1 0x24 PUSH1 0x0 REVERT JUMPDEST PUSH32 0x4E487B7100000000000000000000000000000000000000000000000000000000 PUSH1 0x0 MSTORE PUSH1 0x11 PUSH1 0x4 MSTORE PUSH1 0x24 PUSH1 0x0 REVERT JUMPDEST PUSH1 0x0 PUSH2 0xD09 DUP3 PUSH2 0x565 JUMP JUMPDEST SWAP2 POP PUSH32 0xFFFFFFFFFFFFFFFFFFFFFFFFFFFFFFFFFFFFFFFFFFFFFFFFFFFFFFFFFFFFFFFF DUP3 SUB PUSH2 0xD3B JUMPI PUSH2 0xD3A PUSH2 0xCCF JUMP JUMPDEST JUMPDEST PUSH1 0x1 DUP3 ADD SWAP1 POP SWAP2 SWAP1 POP JUMP INVALID LOG2 PUSH5 0x6970667358 0x22 SLT KECCAK256 0xE4 0xCF NOT 0xC0 DUP14 DUP7 DUP3 0xC5 CALLDATACOPY 0x27 CODECOPY SWAP1 0x27 0xEE DUP7 PUSH13 0xFF5F3A171C4FD124A70B57D572 SDIV JUMP SWAP9 PUSH5 0x736F6C6343 STOP ADDMOD EQ STOP CALLER "},"methodIdentifiers":{"getMessagesForRecipient()":"f6d4c572","messages(uint256)":"0d80fefd","sendMessage(address,string)":"de6f24bb"}}}}}