{
  "_format": "hh-sol-artifact-1",
  "contractName": "Messages",
  "sourceName": "contracts/Messages.sol",
  "abi": [
    {
      "inputs": [],
      "name": "getMessagesForRecipient",
      "outputs": [
        {
          "internalType": "string[]",
          "name": "",
          "type": "string[]"
        }
      ],
      "stateMutability": "view",
      "type": "function"
    },
    {
      "inputs": [
        {
          "internalType": "uint256",
          "name": "",
          "type": "uint256"
        }
      ],
      "name": "messages",
      "outputs": [
        {
          "internalType": "address",
          "name": "sender",
          "type": "address"
        },
        {
          "internalType": "address",
          "name": "recipient",
          "type": "address"
        },
        {
          "internalType": "string",
          "name": "encryptedMessage",
          "type": "string"
        }
      ],
      "stateMutability": "view",
      "type": "function"
    },
    {
      "inputs": [
        {
          "internalType": "address",
          "name": "recipient",
          "type": "address"
        },
        {
          "internalType": "string",
          "name": "encryptedMessage",
          "type": "string"
        }
      ],
      "name": "sendMessage",
      "outputs": [],
      "stateMutability": "nonpayable",
      "type": "function"
    }
  ],
  "bytecode": "0x6080604052348015600f57600080fd5b50610d708061001f6000396000f3fe608060405234801561001057600080fd5b50600436106100415760003560e01c80630d80fefd14610046578063de6f24bb14610078578063f6d4c57214610094575b600080fd5b610060600480360381019061005b919061058f565b6100b2565b60405161006f9392919061068d565b60405180910390f35b610092600480360381019061008d919061082c565b6101b4565b005b61009c6102d0565b6040516100a99190610994565b60405180910390f35b600081815481106100c257600080fd5b90600052602060002090600302016000915090508060000160009054906101000a900473ffffffffffffffffffffffffffffffffffffffff16908060010160009054906101000a900473ffffffffffffffffffffffffffffffffffffffff1690806002018054610131906109e5565b80601f016020809104026020016040519081016040528092919081815260200182805461015d906109e5565b80156101aa5780601f1061017f576101008083540402835291602001916101aa565b820191906000526020600020905b81548152906001019060200180831161018d57829003601f168201915b5050505050905083565b600060405180606001604052803373ffffffffffffffffffffffffffffffffffffffff1681526020018473ffffffffffffffffffffffffffffffffffffffff16815260200183815250908060018154018082558091505060019003906000526020600020906003020160009091909190915060008201518160000160006101000a81548173ffffffffffffffffffffffffffffffffffffffff021916908373ffffffffffffffffffffffffffffffffffffffff16021790555060208201518160010160006101000a81548173ffffffffffffffffffffffffffffffffffffffff021916908373ffffffffffffffffffffffffffffffffffffffff16021790555060408201518160020190816102c99190610bc2565b5050505050565b60606000805b600080549050811015610377573373ffffffffffffffffffffffffffffffffffffffff166000828154811061030e5761030d610c94565b5b906000526020600020906003020160010160009054906101000a900473ffffffffffffffffffffffffffffffffffffffff1673ffffffffffffffffffffffffffffffffffffffff160361036a57818061036690610cf2565b9250505b80806001019150506102d6565b5060008167ffffffffffffffff81111561039457610393610701565b5b6040519080825280602002602001820160405280156103c757816020015b60608152602001906001900390816103b25790505b5090506000805b60008054905081101561053b573373ffffffffffffffffffffffffffffffffffffffff166000828154811061040657610405610c94565b5b906000526020600020906003020160010160009054906101000a900473ffffffffffffffffffffffffffffffffffffffff1673ffffffffffffffffffffffffffffffffffffffff160361052e576000818154811061046757610466610c94565b5b90600052602060002090600302016002018054610483906109e5565b80601f01602080910402602001604051908101604052809291908181526020018280546104af906109e5565b80156104fc5780601f106104d1576101008083540402835291602001916104fc565b820191906000526020600020905b8154815290600101906020018083116104df57829003601f168201915b505050505083838151811061051457610513610c94565b5b6020026020010181905250818061052a90610cf2565b9250505b80806001019150506103ce565b5081935050505090565b6000604051905090565b600080fd5b600080fd5b6000819050919050565b61056c81610559565b811461057757600080fd5b50565b60008135905061058981610563565b92915050565b6000602082840312156105a5576105a461054f565b5b60006105b38482850161057a565b91505092915050565b600073ffffffffffffffffffffffffffffffffffffffff82169050919050565b60006105e7826105bc565b9050919050565b6105f7816105dc565b82525050565b600081519050919050565b600082825260208201905092915050565b60005b8381101561063757808201518184015260208101905061061c565b60008484015250505050565b6000601f19601f8301169050919050565b600061065f826105fd565b6106698185610608565b9350610679818560208601610619565b61068281610643565b840191505092915050565b60006060820190506106a260008301866105ee565b6106af60208301856105ee565b81810360408301526106c18184610654565b9050949350505050565b6106d4816105dc565b81146106df57600080fd5b50565b6000813590506106f1816106cb565b92915050565b600080fd5b600080fd5b7f4e487b7100000000000000000000000000000000000000000000000000000000600052604160045260246000fd5b61073982610643565b810181811067ffffffffffffffff8211171561075857610757610701565b5b80604052505050565b600061076b610545565b90506107778282610730565b919050565b600067ffffffffffffffff82111561079757610796610701565b5b6107a082610643565b9050602081019050919050565b82818337600083830152505050565b60006107cf6107ca8461077c565b610761565b9050828152602081018484840111156107eb576107ea6106fc565b5b6107f68482856107ad565b509392505050565b600082601f830112610813576108126106f7565b5b81356108238482602086016107bc565b91505092915050565b600080604083850312156108435761084261054f565b5b6000610851858286016106e2565b925050602083013567ffffffffffffffff81111561087257610871610554565b5b61087e858286016107fe565b9150509250929050565b600081519050919050565b600082825260208201905092915050565b6000819050602082019050919050565b600082825260208201905092915050565b60006108d0826105fd565b6108da81856108b4565b93506108ea818560208601610619565b6108f381610643565b840191505092915050565b600061090a83836108c5565b905092915050565b6000602082019050919050565b600061092a82610888565b6109348185610893565b935083602082028501610946856108a4565b8060005b85811015610982578484038952815161096385826108fe565b945061096e83610912565b925060208a0199505060018101905061094a565b50829750879550505050505092915050565b600060208201905081810360008301526109ae818461091f565b905092915050565b7f4e487b7100000000000000000000000000000000000000000000000000000000600052602260045260246000fd5b600060028204905060018216806109fd57607f821691505b602082108103610a1057610a0f6109b6565b5b50919050565b60008190508160005260206000209050919050565b60006020601f8301049050919050565b600082821b905092915050565b600060088302610a787fffffffffffffffffffffffffffffffffffffffffffffffffffffffffffffffff82610a3b565b610a828683610a3b565b95508019841693508086168417925050509392505050565b6000819050919050565b6000610abf610aba610ab584610559565b610a9a565b610559565b9050919050565b6000819050919050565b610ad983610aa4565b610aed610ae582610ac6565b848454610a48565b825550505050565b600090565b610b02610af5565b610b0d818484610ad0565b505050565b5b81811015610b3157610b26600082610afa565b600181019050610b13565b5050565b601f821115610b7657610b4781610a16565b610b5084610a2b565b81016020851015610b5f578190505b610b73610b6b85610a2b565b830182610b12565b50505b505050565b600082821c905092915050565b6000610b9960001984600802610b7b565b1980831691505092915050565b6000610bb28383610b88565b9150826002028217905092915050565b610bcb826105fd565b67ffffffffffffffff811115610be457610be3610701565b5b610bee82546109e5565b610bf9828285610b35565b600060209050601f831160018114610c2c5760008415610c1a578287015190505b610c248582610ba6565b865550610c8c565b601f198416610c3a86610a16565b60005b82811015610c6257848901518255600182019150602085019450602081019050610c3d565b86831015610c7f5784890151610c7b601f891682610b88565b8355505b6001600288020188555050505b505050505050565b7f4e487b7100000000000000000000000000000000000000000000000000000000600052603260045260246000fd5b7f4e487b7100000000000000000000000000000000000000000000000000000000600052601160045260246000fd5b6000610cfd82610559565b91507fffffffffffffffffffffffffffffffffffffffffffffffffffffffffffffffff8203610d2f57610d2e610cc3565b5b60018201905091905056fea26469706673582212202cc12a32f440159d84cf7bcd239d2468d9735be8f8618aabac51332b06ab1c6964736f6c634300081b0033",
  "linkReferences": {},
  "deployedLinkReferences": {}
}