{
  "_format": "hh-sol-artifact-1",
  "contractName": "Messages",
  "sourceName": "contracts/Messages.sol",
  "abi": [
    {
      "inputs": [],
      "name": "getMessagesForRecipient",
      "outputs": [
        {
          "internalType": "string[]",
          "name": "",
          "type": "string[]"
        }
      ],
      "stateMutability": "view",
      "type": "function"
    },
    {
      "inputs": [
        {
          "internalType": "uint256",
          "name": "",
          "type": "uint256"
        }
      ],
      "name": "messages",
      "outputs": [
        {
          "internalType": "address",
          "name": "sender",
          "type": "address"
        },
        {
          "internalType": "address",
          "name": "recipient",
          "type": "address"
        },
        {
          "internalType": "string",
          "name": "encryptedMessage",
          "type": "string"
        }
      ],
      "stateMutability": "view",
      "type": "function"
    },
    {
      "inputs": [
        {
          "internalType": "address",
          "name": "recipient",
          "type": "address"
        },
        {
          "internalType": "string",
          "name": "encryptedMessage",
          "type": "string"
        }
      ],
      "name": "sendMessage",
      "outputs": [],
      "stateMutability": "nonpayable",
      "type": "function"
    }
  ],
  "bytecode": "0x608060405234801561001057600080fd5b50610d7c806100206000396000f3fe608060405234801561001057600080fd5b50600436106100415760003560e01c80630d80fefd14610046578063de6f24bb14610078578063f6d4c57214610094575b600080fd5b610060600480360381019061005b919061059b565b6100b2565b60405161006f93929190610699565b60405180910390f35b610092600480360381019061008d9190610838565b6101b4565b005b61009c6102d0565b6040516100a991906109a0565b60405180910390f35b600081815481106100c257600080fd5b90600052602060002090600302016000915090508060000160009054906101000a900473ffffffffffffffffffffffffffffffffffffffff16908060010160009054906101000a900473ffffffffffffffffffffffffffffffffffffffff1690806002018054610131906109f1565b80601f016020809104026020016040519081016040528092919081815260200182805461015d906109f1565b80156101aa5780601f1061017f576101008083540402835291602001916101aa565b820191906000526020600020905b81548152906001019060200180831161018d57829003601f168201915b5050505050905083565b600060405180606001604052803373ffffffffffffffffffffffffffffffffffffffff1681526020018473ffffffffffffffffffffffffffffffffffffffff16815260200183815250908060018154018082558091505060019003906000526020600020906003020160009091909190915060008201518160000160006101000a81548173ffffffffffffffffffffffffffffffffffffffff021916908373ffffffffffffffffffffffffffffffffffffffff16021790555060208201518160010160006101000a81548173ffffffffffffffffffffffffffffffffffffffff021916908373ffffffffffffffffffffffffffffffffffffffff16021790555060408201518160020190816102c99190610bce565b5050505050565b60606000805b60008054905081101561037d573373ffffffffffffffffffffffffffffffffffffffff166000828154811061030e5761030d610ca0565b5b906000526020600020906003020160010160009054906101000a900473ffffffffffffffffffffffffffffffffffffffff1673ffffffffffffffffffffffffffffffffffffffff160361036a57818061036690610cfe565b9250505b808061037590610cfe565b9150506102d6565b5060008167ffffffffffffffff81111561039a5761039961070d565b5b6040519080825280602002602001820160405280156103cd57816020015b60608152602001906001900390816103b85790505b5090506000805b600080549050811015610547573373ffffffffffffffffffffffffffffffffffffffff166000828154811061040c5761040b610ca0565b5b906000526020600020906003020160010160009054906101000a900473ffffffffffffffffffffffffffffffffffffffff1673ffffffffffffffffffffffffffffffffffffffff1603610534576000818154811061046d5761046c610ca0565b5b90600052602060002090600302016002018054610489906109f1565b80601f01602080910402602001604051908101604052809291908181526020018280546104b5906109f1565b80156105025780601f106104d757610100808354040283529160200191610502565b820191906000526020600020905b8154815290600101906020018083116104e557829003601f168201915b505050505083838151811061051a57610519610ca0565b5b6020026020010181905250818061053090610cfe565b9250505b808061053f90610cfe565b9150506103d4565b5081935050505090565b6000604051905090565b600080fd5b600080fd5b6000819050919050565b61057881610565565b811461058357600080fd5b50565b6000813590506105958161056f565b92915050565b6000602082840312156105b1576105b061055b565b5b60006105bf84828501610586565b91505092915050565b600073ffffffffffffffffffffffffffffffffffffffff82169050919050565b60006105f3826105c8565b9050919050565b610603816105e8565b82525050565b600081519050919050565b600082825260208201905092915050565b60005b83811015610643578082015181840152602081019050610628565b60008484015250505050565b6000601f19601f8301169050919050565b600061066b82610609565b6106758185610614565b9350610685818560208601610625565b61068e8161064f565b840191505092915050565b60006060820190506106ae60008301866105fa565b6106bb60208301856105fa565b81810360408301526106cd8184610660565b9050949350505050565b6106e0816105e8565b81146106eb57600080fd5b50565b6000813590506106fd816106d7565b92915050565b600080fd5b600080fd5b7f4e487b7100000000000000000000000000000000000000000000000000000000600052604160045260246000fd5b6107458261064f565b810181811067ffffffffffffffff821117156107645761076361070d565b5b80604052505050565b6000610777610551565b9050610783828261073c565b919050565b600067ffffffffffffffff8211156107a3576107a261070d565b5b6107ac8261064f565b9050602081019050919050565b82818337600083830152505050565b60006107db6107d684610788565b61076d565b9050828152602081018484840111156107f7576107f6610708565b5b6108028482856107b9565b509392505050565b600082601f83011261081f5761081e610703565b5b813561082f8482602086016107c8565b91505092915050565b6000806040838503121561084f5761084e61055b565b5b600061085d858286016106ee565b925050602083013567ffffffffffffffff81111561087e5761087d610560565b5b61088a8582860161080a565b9150509250929050565b600081519050919050565b600082825260208201905092915050565b6000819050602082019050919050565b600082825260208201905092915050565b60006108dc82610609565b6108e681856108c0565b93506108f6818560208601610625565b6108ff8161064f565b840191505092915050565b600061091683836108d1565b905092915050565b6000602082019050919050565b600061093682610894565b610940818561089f565b935083602082028501610952856108b0565b8060005b8581101561098e578484038952815161096f858261090a565b945061097a8361091e565b925060208a01995050600181019050610956565b50829750879550505050505092915050565b600060208201905081810360008301526109ba818461092b565b905092915050565b7f4e487b7100000000000000000000000000000000000000000000000000000000600052602260045260246000fd5b60006002820490506001821680610a0957607f821691505b602082108103610a1c57610a1b6109c2565b5b50919050565b60008190508160005260206000209050919050565b60006020601f8301049050919050565b600082821b905092915050565b600060088302610a847fffffffffffffffffffffffffffffffffffffffffffffffffffffffffffffffff82610a47565b610a8e8683610a47565b95508019841693508086168417925050509392505050565b6000819050919050565b6000610acb610ac6610ac184610565565b610aa6565b610565565b9050919050565b6000819050919050565b610ae583610ab0565b610af9610af182610ad2565b848454610a54565b825550505050565b600090565b610b0e610b01565b610b19818484610adc565b505050565b5b81811015610b3d57610b32600082610b06565b600181019050610b1f565b5050565b601f821115610b8257610b5381610a22565b610b5c84610a37565b81016020851015610b6b578190505b610b7f610b7785610a37565b830182610b1e565b50505b505050565b600082821c905092915050565b6000610ba560001984600802610b87565b1980831691505092915050565b6000610bbe8383610b94565b9150826002028217905092915050565b610bd782610609565b67ffffffffffffffff811115610bf057610bef61070d565b5b610bfa82546109f1565b610c05828285610b41565b600060209050601f831160018114610c385760008415610c26578287015190505b610c308582610bb2565b865550610c98565b601f198416610c4686610a22565b60005b82811015610c6e57848901518255600182019150602085019450602081019050610c49565b86831015610c8b5784890151610c87601f891682610b94565b8355505b6001600288020188555050505b505050505050565b7f4e487b7100000000000000000000000000000000000000000000000000000000600052603260045260246000fd5b7f4e487b7100000000000000000000000000000000000000000000000000000000600052601160045260246000fd5b6000610d0982610565565b91507fffffffffffffffffffffffffffffffffffffffffffffffffffffffffffffffff8203610d3b57610d3a610ccf565b5b60018201905091905056fea2646970667358221220e4cf19c08d8682c53727399027ee866cff5f3a171c4fd124a70b57d57205569864736f6c63430008140033",
  "linkReferences": {},
  "deployedLinkReferences": {}
}